:020000040000FA
:10000000031383128B01AC2EF200030EF300830165
:100010008C102B1C2328AC0B23280330AC00AB180E
:100020001828AD0B1E282B10AB14162806162328F3
:10003000AB100930AD001C2806122328AE0C0318A3
:100040000616031C06122B192C28861A4528013087
:10005000AF00AB152B154528AF0B45280330AF007B
:10006000AB193B28B00B41282B11861E45283108BF
:10007000B2002B164528861A2B110930B000AB119F
:100080004528B10CB113861AB1178C1E56280408E6
:10009000F4008313A030700784001A088000F00A6F
:1000A000503070020318F00174088400A60B642815
:1000B0009130A6002808031DA803A70B642829086F
:1000C000031DA9032A0FAA0A730E8300F20E720EF3
:1000D0000900B901B308031989281030B600B80126
:1000E000B701B41B7828B50DB40DB60B7128080004
:1000F000B50DB40DB90D0318812833083902031C5E
:1001000084283308B9020314B80DB70DB60B78284C
:100110000800FF30B800FF30B700080083166730D2
:100120009900243098008312903098008C120800B7
:100130000C1E9828990008008C1E9C281A08BA00EA
:10014000080003018C1A1A08BA000800BB01A92094
:10015000BB0E9C203A1BF93ED03EBB043B08080076
:10016000BB00B220BB0E3B080F39F63E0318073E1A
:100170003A3E982008000616AB01AB140130AC00E3
:1001800008002B18C128AE002B1408002B1EC6280F
:1001900032082B120800BC01CE20BC0EC6203A1B30
:1001A000F93ED03EBC043C080800BC00D720BC0E81
:1001B0003C080F39F63E0318073E3A3EC1200800BE
:1001C000FF3E031DE0280800BD012D292D21BD1C87
:1001D0000800CC3050214E3050217F3050218030EB
:1001E00050211F3050292D21BD1C0800CC3050213A
:1001F0004E3050217F305021803050213F305029E7
:100200002D21BD1C0800CC3050214E3050217F30B4
:100210005021803050215F3050292D21BD1C080015
:10022000CC3050214E3050217F3050218030502131
:100230007F3050292D21BD1C0800CC305021443086
:1002400050292D21BD1C0800CC305021BE3050213A
:100250007421BF007421BE0008003D108B1B3D14AB
:100260000513831605133130E0203130E0201330C0
:10027000E0208B13051783120F30E020051B4C295B
:100280003D188B173130E0203130E0200230E02083
:10029000051F4C29BD1408003D188B17BD10080020
:1002A000C0003D108B1B3D1405130830C100C00C6D
:1002B000031866298B13831605130E30E0200517EB
:1002C00083123D188B170230E02071298B1383169F
:1002D0000513E3206B29051783123D188B170F3088
:1002E000E020C10B572908003D108B1B3D1405135E
:1002F0000830C1008B138316051300000517831205
:10030000E32082290314051F0310C00C3D188B172E
:100310000C30E0208B29C10B7A29400808000530F9
:100320009429193094293230A8006400A808031DCC
:100330009629080012300726C2000826C3000800CC
:10034000C4004308032644080E26C30A1430C31B06
:10035000C30043084202031DB129C20A1430C21B64
:10036000C200BE29430842020319080042080726BA
:10037000C400AD219F2D1430C200C30012300326EB
:1003800042080E2643080E2E85178F21E420E62012
:100390001A210630942121218513D2213230BD1C2F
:1003A0000138A029D321D421BE0CBF0C080085152B
:1003B0000A30A300FC21450846040319EB2945082F
:1003C0004605013E0319EB2902304502031CEB29C7
:1003D00085113430A029A30BDA298511450846047C
:1003E0000319FA29FF30C600FF30C500FF30C800EE
:1003F000FF30C7003530A0298F218B130516E3206D
:10040000012AE320032A05120330A8008F018E0180
:1004100001309000053097000C118B1786194F2A78
:10042000A80803194F2A0C1D102A8B131508C600A3
:100430001608C50015084602031D162A9701043048
:1004400097000C118B1701304502031D4F2A0C1920
:10045000352AA808031D272AFF30C600FF30C50033
:10046000FF30C800FF30C7004C2A97011508C602AC
:100470001608031C013EC502C609C509C60A0319B0
:10048000C50A4608B5004508B4003A30B3006920F3
:100490003808C8003708C700970190010800C60156
:1004A000C501C801C7014C2AF001F10108008313FE
:1004B000A030710784000800840AF0300402A030E4
:1004C00003188400A03070070406031003190314F6
:1004D0000A300006031908000D3000060800F10A72
:1004E000503071020318F10108000408603EF10069
:1004F00008000D3098200800223098200800413074
:1005000098205430982008008D224D309820473094
:10051000982008008D2253309820433098200800FE
:10052000533098203D309820080052309820080021
:1005300079227F222B3098200800C901CA01CB0103
:100540000800051183160511831233309421831698
:1005500005158312080079220A30A3007F22792230
:10056000542230230319B72AA30BAE2A9F2D9321BF
:100570007F22453098203030982079225422302331
:10058000031DAB2A080079227F227922302B982282
:100590008A224C3098204B3098209222303098207C
:1005A0007922302B982284224630982092223130B2
:1005B0009820D02A98228A2290227C2287225330A7
:1005C00098204D3098207C22D02A982284224430D2
:1005D00098209222313098202C3098203430982066
:1005E000D02A49179822842290227C222A264E3033
:1005F000840000080319FF2A9820840AF92A7C2223
:1006000079222423031D49130800C4001A30491F0E
:100610001B3098207922491F182BC9123E233E23F4
:10062000031D49133023031D4913491F182BA1290A
:100630004414A1299822842295229222CC014B08AD
:10064000CD00BE25CB01D02A49163230A800640067
:100650005623491E3C2BA808031D272B49129F2D0A
:1006600049113230A8006400562349193B2BA808D1
:10067000031D332B2F2B49118F219D2DFA30A800FC
:1006800064005623C91A9D2DA808031D402B2F2B4B
:1006900061300002031C502B7B300002031C522BE4
:1006A000000808000008203A08006F227008710254
:1006B00003190800572268220319552B80080319D3
:1006C000552B491E672B8723491E562B57225C2228
:1006D00003180800031D672B5C2203180800031D84
:1006E000672B491095234918562BA9234918562BD7
:1006F000E6234918562B30244918562B57225C22E2
:10070000031D7F2B5C22031D7F2B6024562B482367
:100710003E3A031D08005C22031808002030000246
:10072000031D08005C224912752A572248234F3ABC
:10073000031D08005C220318080048234B3A031DE0
:1007400008005C2203180800031D0800491449151D
:10075000602C572248232B3A031D08005C22031803
:1007600008004823433A031D08005C2203180800D0
:1007700048234D3A031D08005C2203180800482353
:10078000543A031D08005C22031808004823493A24
:10079000031D08005C220318080048233A3A031D91
:1007A00008005C220318080049140319602C2C303F
:1007B00000020319DD2B5C22D52B5C220319602C6F
:1007C000A1254D08CC080319CB00602C57224823E3
:1007D0002B3A031D08005C22031808004823433A03
:1007E000031D08005C220318080048234D3A031D2E
:1007F00008005C22031808004823473A031D08003C
:100800005C22031808004823523A031D08005C22AA
:100810000318080048233A3A031D08005C22031815
:10082000080049140319602C2C30000203191A2CFB
:100830005C22122C5C220319602C22300002031D62
:10084000602C5C220319602CDF2522300002031D7E
:10085000602C5C22031D292C60246624C915080025
:10086000572248232B3A031D08005C220318080076
:100870004823433A031D08005C220318080048235C
:100880004D3A031D08005C22031808004823473A2C
:10089000031D08005C22031808004823533A031D77
:1008A00008005C220318080048233A3A031D080098
:1008B0005C22031808004914C9165C22031D5D2C34
:1008C0005C220318652C0319602C752A71087002CC
:1008D0000319662C6822031D702C5C227522662C7D
:1008E0005722A301A30A1430230203188A2C5C2286
:1008F0000318702C031D722CC9108B24EC24F924CE
:1009000006254B25C91C8A2C57225C22031D852CE9
:1009100075220800572A57224823533A031D08001E
:100920005C22031808004823453A031D08005C2296
:10093000031808004823543A031D08005C220318DA
:1009400008004823543A031D08005C2203180800DD
:100950004823483A031D08005C2203180800482376
:10096000493A031D08005C22031808004823533A43
:10097000031D08005C220318080048234E3A031D9B
:1009800008005C22031808004823553A031D08009C
:100990005C220318080048234D3A031D08005C221E
:1009A000031808004823423A031D08005C2203187C
:1009B00008004823453A031D08005C22031808007C
:1009C0004823523A031D08005C2203180800031D47
:1009D0000800C9144A143A2E57224823543A031DDA
:1009E00008005C2203180800031D0800C914CA147B
:1009F000080057224823523A031D08005C220318BE
:100A00000800031D0800C9144A150800572248238E
:100A10004F3A031D08005C22031808004823423A9D
:100A2000031D08005C22031808004823523A031DE6
:100A300008005C22031808004823413A031D0800FF
:100A40005C22031808004823543A031D08005C2266
:100A50000318080048234E3A031D08005C220318BF
:100A6000080048234F3A031D08005C2203180800C1
:100A70004823453A031D08005C2203180800482358
:100A8000523A031D08005C2203180800031D0800E9
:100A9000C914CA15080057224823473A031D080005
:100AA0005C220318080048234C3A031D08005C220E
:100AB000031808004823553A031D08005C22031858
:100AC00008004823423A031D08005C22031808006E
:100AD0004823493A031D08005C22031808004823F4
:100AE0004E3A031D08005C22031808004823413ACF
:100AF000031D08005C22031808004823203A031D48
:100B000008005C220318080003190800A1254C08FE
:100B10004D04031908006822031D0800C9144A1671
:100B20004D08A2004C08A100242E30300002031C06
:100B30009F2D3A30000203189F2D03150800031162
:100B40000800CD01CC019525031D08000310CD0D33
:100B5000CC0D4C08A3004D080310CD0DCC0D031097
:100B6000CD0DCC0DCD070318CC0A2308CC07000807
:100B7000D03ECD070318CC0A5C22A32D4D08B5004A
:100B80004C08B400643035020030031C013E3402CE
:100B90000318CF2D0A3035020318D22DD52D64301D
:100BA000B300D7250A30B300D7253508DC2D6920DE
:100BB000B4013908B5003808303E982008004E309E
:100BC000A3001030A400223000020319FB2D0008FE
:100BD000A50023080406A306840625088000230830
:100BE0000406A3068406A30A5C220319F92DA40BAC
:100BF000E32D4E30A30023080406A30684068001DB
:100C000023088400080083169B0083120800032633
:100C100083161C141A089B0A8312080083169A0074
:100C20008B131C1555309D00AA309D009C148B170A
:100C30009C18182E1C119B0A8312080010300726DE
:100C4000A1000826A20008001030032621080E2665
:100C500022080E2E4E3084000F30A30000300726ED
:100C60008000800803190800840A0826A30B302E90
:100C7000800108004E3084000F30A30000300326AE
:100C800000080319472E0E26840AA30B402E0301E9
:100C90000E2EC620853E031808001A3E031C0800CD
:100CA000063A8A00063A8A06583E03188A0A8200E3
:100CB000822E0800A62E080008000800922E0800C8
:100CC0000800080008009A2E0800882E0800080076
:100CD00008007B2E0800722E08000800080008009B
:100CE00008000800C421A9263F08BD1C8030D5207B
:100CF0003E30C1200800D721A9264708D520480842
:100D0000D520782EA926303006183130C120782E13
:100D10002A26A9264E30840000080319782EC12007
:100D2000840A8C2E1E263C30C1202108D5202208A2
:100D3000D520782EA926B2210319782E4408D52073
:100D4000B2210319782E2C30C1209E2EBB219A216E
:100D50009A2E3C30C120080007309F0085011430D6
:100D600086008316BF30810027308500EB30860077
:100D700083128E20BB2091018316893092008C143F
:100D80008312043092008C100B178B170130A600D1
:100D9000A7015422A9019A219D229321C421D72180
:100DA0001E30A021A122932193219321AB22031D68
:100DB000D22ED222031DD22EDA22031DD22EE522FC
:100DC000031DD22EC722031DD22E1030A021AA014E
:100DD00064005623C919D227CA18A7274A19AF2772
:100DE0004A1AC027CA19B7274A1890278B18C8274C
:100DF000CB08031D1A232B1A49260C302A02031C88
:100E0000E82EC3220319E72EF030A021D02EBD1CFE
:100E100034278122BD1C08003C27CC012D30BF1B8C
:100E200098203F08BF1B003CCD00BE253E27673001
:100E30009820723098206130982064309820080003
:100E400047084804031DC71B322F95223C2748083A
:100E5000CD004708CC00BE253E27733098206D306A
:100E6000982008003427952A45309820952295220D
:100E70004F30982095223E2F3E27922220309820F6
:100E8000080047084804031DC71B322F4F30982025
:100E90006230982072309820613098207430982009
:100EA0006E3098206F3098206530982095223C272E
:100EB00048082202CD004708031C013E2102CC0055
:100EC000CC1F2B2F2D309820CD09CC09CD0A03192A
:100ED000CC0A2B2F87226C309820753098206230F6
:100EE0009820693098206E309820613098203C27F7
:100EF0002208CD002108CC00BE252C2F533098208D
:100F00007630982065309820743098206130982091
:100F10003E276E3098206530982074309820080065
:100F20004A102230A021C421D7211E26F1220727F2
:100F3000A4272027A4276A27A42741270618A22F21
:100F4000A4277E274230052B2C3098203E2FCA1034
:100F50002430A021C421F12207274430052B4A1157
:100F60002630A021D721F12220274630052BCA1197
:100F70002830A021D7211E26F12241274830052BF9
:100F80004A122A30A0211E26F1226A274A30052B58
:100F90008B10A908031D08003A30A900F1227E2712
:0A0FA0004C30052BC9113023E52A5F
:02400E00141F7D
:104200002B0037007800780078007800780078007C
:1042100078007800780078000000000000000000BE
:0A42200001009000140014000000DB
:00000001FF
